8=FIX.4.4|9=74|35=A|34=1|49=XXPIA704|52=20130524-12:49:36.245|56=OE016|98=0|108=30|141=Y|10=131|