8=FIX.4.4|9=81|35=A|34=1|49=ICAP_Ai_Server|52=20131018-19:48:06.099|56=Apama|98=0|108=100|141=Y|10=068|8=FIX.4.4|9=137|35=3|34=2|49=ICAP_Ai_Server|52=20131018-19:48:38.009|56=Apama|45=3|58=Value is incorrect (out of range) for this tag|371=269|372=V|373=5|10=152|8=FIX.4.4|9=71|35=2|34=3|49=ICAP_Ai_Server|52=20131018-19:48:59.914|56=Apama|7=3|16=0|10=067|8=FIX.4.4|9=137|35=3|34=4|49=ICAP_Ai_Server|52=20131018-19:48:59.916|56=Apama|45=3|58=Value is incorrect (out of range) for this tag|371=269|372=V|373=5|10=164|8=FIX.4.4|9=217|35=8|34=5|49=ICAP_Ai_Server|52=20131018-19:49:27.546|56=Apama|11=1#1222#1382125739.8|14=0|17=402281381831294446|37=046C-9D24-000A|38=2000000|39=0|40=2|44=1.59375|54=1|55=GBP/USD|59=1|63=0|150=0|151=2000000|461=RCSXXX|10=211|8=FIX.4.4|9=210|35=AE|34=6|49=ICAP_Ai_Server|52=20131018-19:50:44.327|56=Apama|17=FF01-22FB-0029-B4|31=1.59375|32=1000000|55=GBP/USD|63=0|75=19111111|461=RCSXXX|573=Z|552=1|54=1|37=046C-9D24-000A|11=1#1222#1382125739.8|1057=N|10=075|8=FIX.4.4|9=306|35=AE|34=7|49=ICAP_Ai_Server|52=20131018-19:51:22.882|56=Apama|17=FF01-22FB-0029-B4|31=1.59375|32=1000000|55=GBP/USD|60=20131015-10:01:34.511|63=0|64=20131017|75=20131015|461=RCSXXX|573=0|1003=4363|552=1|54=1|37=046C-9D24-000A|11=1#1222#1382125739.8|1057=N|453=2|448=CITL|447=D|452=17|448=LU2|447=D|452=37|10=126|8=FIX.4.4|9=255|35=8|34=8|49=ICAP_Ai_Server|52=20131018-19:51:58.480|56=Apama|11=1#1222#1382125739.8|14=1000000|17=402281381831299657|37=046C-9D24-000A|38=2000000|39=4|40=2|44=1.59375|54=1|55=GBP/USD|58=ATI200060: Requested by the client|59=1|63=0|150=4|151=0|461=RCSXXX|10=154|8=FIX.4.4|9=62|35=0|34=9|49=ICAP_Ai_Server|52=20131018-19:53:38.544|56=Apama|10=194|8=FIX.4.4|9=63|35=0|34=10|49=ICAP_Ai_Server|52=20131018-19:55:18.549|56=Apama|10=240|8=FIX.4.4|9=63|35=0|34=11|49=ICAP_Ai_Server|52=20131018-19:56:58.557|56=Apama|10=245|8=FIX.4.4|9=63|35=0|34=12|49=ICAP_Ai_Server|52=20131018-19:58:38.560|56=Apama|10=240|8=FIX.4.4|9=63|35=0|34=13|49=ICAP_Ai_Server|52=20131018-20:00:19.557|56=Apama|10=225|8=FIX.4.4|9=63|35=0|34=14|49=ICAP_Ai_Server|52=20131018-20:02:00.552|56=Apama|10=213|8=FIX.4.4|9=63|35=5|34=15|49=ICAP_Ai_Server|52=20131018-20:02:05.556|56=Apama|10=228|