8=FIX.4.2|9=72|35=A|34=1|49=apama|52=20120703-19:36:31.356|56=server|98=0|108=30|141=Y|10=197|8=FIX.4.2|9=54|35=0|34=2|49=apama|52=20120703-19:37:01.350|56=server|10=103|8=FIX.4.2|9=125|35=D|34=3|49=apama|52=20120703-19:37:10.306|56=server|11=1:6:1341344230.3|21=1|38=2200|40=1|54=2|55=CRM|60=20120703-19:37:10|10=255|8=FIX.4.2|9=54|35=0|34=4|49=apama|52=20120703-19:37:40.443|56=server|10=111|8=FIX.4.2|9=54|35=0|34=5|49=apama|52=20120703-19:38:10.498|56=server|10=120|8=FIX.4.2|9=54|35=0|34=6|49=apama|52=20120703-19:38:40.595|56=server|10=122|8=FIX.4.2|9=54|35=0|34=7|49=apama|52=20120703-19:39:10.602|56=server|10=110|8=FIX.4.2|9=54|35=0|34=8|49=apama|52=20120703-19:39:40.650|56=server|10=117|8=FIX.4.2|9=54|35=0|34=9|49=apama|52=20120703-19:40:10.698|56=server|10=119|8=FIX.4.2|9=55|35=0|34=10|49=apama|52=20120703-19:40:40.775|56=server|10=159|8=FIX.4.2|9=55|35=0|34=11|49=apama|52=20120703-19:41:10.779|56=server|10=162|8=FIX.4.2|9=55|35=0|34=12|49=apama|52=20120703-19:41:40.782|56=server|10=160|8=FIX.4.2|9=158|35=G|34=13|49=apama|52=20120703-19:42:06.094|56=server|11=1:7:1341344526|21=1|37=0130000038|38=2200|40=1|41=1:6:1341344230.3|54=2|55=CRM|60=20120703-19:42:06|10=086|8=FIX.4.2|9=55|35=0|34=14|49=apama|52=20120703-19:42:36.902|56=server|10=162|8=FIX.4.2|9=55|35=0|34=15|49=apama|52=20120703-19:43:06.960|56=server|10=165|8=FIX.4.2|9=55|35=0|34=16|49=apama|52=20120703-19:43:36.979|56=server|10=179|8=FIX.4.2|9=55|35=0|34=17|49=apama|52=20120703-19:44:06.029|56=server|10=164|8=FIX.4.2|9=55|35=0|34=18|49=apama|52=20120703-19:44:36.105|56=server|10=163|8=FIX.4.2|9=55|35=0|34=19|49=apama|52=20120703-19:45:06.185|56=server|10=170|8=FIX.4.2|9=55|35=0|34=20|49=apama|52=20120703-19:45:36.262|56=server|10=161|8=FIX.4.2|9=55|35=0|34=21|49=apama|52=20120703-19:46:06.286|56=server|10=166|8=FIX.4.2|9=55|35=0|34=22|49=apama|52=20120703-19:46:36.294|56=server|10=169|8=FIX.4.2|9=55|35=0|34=23|49=apama|52=20120703-19:47:06.319|56=server|10=166|8=FIX.4.2|9=55|35=0|34=24|49=apama|52=20120703-19:47:36.376|56=server|10=173|8=FIX.4.2|9=55|35=0|34=25|49=apama|52=20120703-19:48:06.442|56=server|10=166|8=FIX.4.2|9=55|35=0|34=26|49=apama|52=20120703-19:48:36.519|56=server|10=175|8=FIX.4.2|9=55|35=0|34=27|49=apama|52=20120703-19:49:06.572|56=server|10=173|8=FIX.4.2|9=55|35=0|34=28|49=apama|52=20120703-19:49:36.575|56=server|10=180|8=FIX.4.2|9=55|35=5|34=29|49=apama|52=20120703-19:49:39.606|56=server|10=184|